:1000000045C0000060C000005EC000005CC0000091
:100010005AC0000058C0000056C0000054C0000084
:1000200052C0000050C000004EC000004CC0000094
:100030004AC0000048C0000046C0000044C00000A4
:1000400042C0000040C000003EC000003CC00000B4
:100050003AC0000038C0000036C0000034C00000C4
:1000600032C0000030C000002EC000002CC00000D4
:100070002AC0000028C0000026C0000024C00000E4
:1000800022C0000020C000001EC0000011241FBEBE
:10009000CFEFD0E1DEBFCDBF11E0A0E0B1E0EAE1FB
:1000A000F2E000E00BBF02C007900D92AC37B10741
:1000B000D9F721E0ACE7B1E001C01D92A338B20747
:1000C000E1F770D0A8C09CCF89E691E074C0089594
:1000D0008CE691E070C008958FE691E06CC00895C1
:1000E00082E791E068C0089588E791E064C00895D0
:1000F000CF93DF93C82FD0E080917C01FE01EE0FFB
:10010000FF1FEE0FFF1FEE0FFF1FEC1BFD0B95E116
:10011000899FE00DF11D1124E050FF4F0480F5810F
:10012000E02D309709F0099520917C01CE01880FD0
:10013000991F880F991F880F991F8C1B9D0B35E104
:10014000FC01329FE00DF11D1124E050FF4F26818C
:1001500020937C01329F800D911D1124FC01E05001
:10016000FF4F0190F081E02D309709F009958091C3
:100170007C01FE01EE0FFF1FEE0FFF1FEE0FFF1FB2
:10018000EC1BFD0B95E1899FE00DF11D1124E05062
:10019000FF4F0280F381E02D309709F00995DF9140
:1001A000CF9108958FE081BB81E0A2DF82E0A0DFE4
:1001B00082E09EDFFFCF0F931F93CF93DF93E091F9
:1001C0007F01F0918001238121FF1BC08C01D0E0D1
:1001D000C0E0F80181918F0160917F0170918001F1
:1001E000DB011896ED91FC911997882331F0099560
:1001F000892B79F3DFEFCFEFECCF8AE00995892BDC
:1002000019F08FEF9FEF02C08D2F9C2FDF91CF91C0
:0A0210001F910F910895F894FFCF9D
:10021A00640000000000000000640000000100000B
:10022A0068000000020000700000000000000000EA
:10023A0000000100006800000002000070000000D9
:10024A00000000640000000100006C0000000300D0
:10025A0000000000000000007400000004000074A8
:10026A00000000040000700000000000007400009C
:10027A00000400007400000004733100733200733C
:0C028A003300737461727400656E6400D0
:04000003000000E019
:00000001FF
