S00D0000332E422E322E7372656314
S113000045C000004BC0000049C0000047C00000CC
S113001045C0000043C0000041C000003FC00000D4
S11300203DC000003BC0000039C0000037C00000E4
S113003035C0000033C0000031C000002FC00000F4
S11300402DC000002BC0000029C0000027C0000004
S113005025C0000023C0000021C000001FC0000014
S11300601DC000001BC0000019C0000017C0000024
S113007015C0000013C0000011C000000FC0000034
S11300800DC000000BC0000009C0000011241FBEF9
S1130090CFEFD0E1DEBFCDBF02D020C0B1CF81B35E
S11300A0806881BB8EB581608EBD8CB59DB5883965
S11300B09A4348F08CB59DB580349C4920F482B3B2
S11300C08F7782BBF2CF8CB59DB580349C4968F3A1
S11300D082B3806882BB1DBC1CBCE7CFF894FFCF01
S9030000FC
