:1000000045C000004BC0000049C0000047C00000D0
:1000100045C0000043C0000041C000003FC00000D8
:100020003DC000003BC0000039C0000037C00000E8
:1000300035C0000033C0000031C000002FC00000F8
:100040002DC000002BC0000029C0000027C0000008
:1000500025C0000023C0000021C000001FC0000018
:100060001DC000001BC0000019C0000017C0000028
:1000700015C0000013C0000011C000000FC0000038
:100080000DC000000BC0000009C0000011241FBEFD
:10009000CFEFD0E1DEBFCDBF52D185C1B1CF20E0DF
:1000A00030E008C0EFECF7E03197F1F700C0000056
:1000B0002F5F3F4F28173907ACF308958FEF87BBA9
:1000C00087B3877F87BB88B3816088BB82E58DB9A2
:1000D00008958FB9779BFECF089598B321E030E063
:1000E00002C0220F331F8A95E2F72095292328BBEF
:1000F000089598B321E030E002C0220F331F8A95A3
:10010000E2F7292B28BB0895CF93DF93D82FC62F72
:1001100080E0E3DF8D2FDDDF8C2FDBDF80E0E9DFA8
:10012000DF91CF9108956FEF89E0EEDF6FE08AE015
:10013000EBDF6FE08BE0E8DF61E08CE0E5CF089576
:10014000FF920F931F93CF93DF939C018A30910509
:1001500040F4F82ECFEFDFEF0FEF1FEF6FEF7FEFE1
:100160009BC00A978A35910560F4C9016AE070E086
:10017000F3D0F62EC82FD92F0FEF1FEF6FEF7FEFC1
:100180008BC0C9018456910984389340A8F4C901F1
:1001900064E670E0E1D0F62EEAE0F0E0C901BF01CC
:1001A000DBD0382F292FCB01BF01D6D0EC01032F94
:1001B000122F6FEF7FEF70C0C901885E93408832C5
:1001C0009342D8F4C90168EE73E0C6D0F62EC90197
:1001D00064E670E0C1D0CB01EAE0F0E0BF01BCD042
:1001E000EC01C901BF01B8D0382F292FCB01BF01C5
:1001F000B3D08C01632F722F4FC0C90109960997A4
:1002000068F4CC27DD27C21BD30B0F2EFFE0FF2E97
:10021000F02D0FEF1FEF6FEF7FEF3EC0C9018D593B
:100220009F4F8A35910580F488279927821B930B6D
:100230006AE070E091D0EB018C010F2EFFE0FF2E01
:10024000F02D6FEF7FEF28C0C90189519C4F843892
:100250009340D0F4319521953109C90164E670E0ED
:100260007BD0EB01EAE0F0E0C901BF0175D0382F87
:10027000292FCB01BF0170D08C01632F722F0F2E5D
:10028000FFE0FF2EF02D08C0FF24FA94CFEFDFEF40
:100290000FEF1FEF6FEF7FEF6F3F8FEF780749F0A2
:1002A00081E032DF8FE19EE40197F1F700C00000AA
:1002B00009C06FE081E028DF8FE19EE40197F1F74C
:1002C00000C000000F3F9FEF190751F0602F82E040
:1002D0001BDF8FE19EE40197F1F700C0000009C029
:1002E0006FE082E011DF8FE19EE40197F1F700C03B
:1002F0000000CF3F9FEFD90751F06C2F83E004DF60
:100300008FE19EE40197F1F700C0000009C06FE0A3
:1003100083E0FADE8FE19EE40197F1F700C0000070
:100320006F2D84E0F1DE8FE19EE40197F1F700C0CC
:100330000000DF91CF911F910F91FF90089581E010
:1003400087BBBCDEF0DE88EC9FEFFADE88EE93E040
:10035000A6DE81E090E0089597FB072E16F4009446
:1003600006D077FD08D00BD007FC05D03EF4909561
:1003700081959F4F0895709561957F4F0895AA1BB1
:10038000BB1B51E107C0AA1FBB1FA617B70710F080
:10039000A61BB70B881F991F5A95A9F780959095B2
:0A03A000BC01CD010895F894FFCFD1
:00000001FF
