:1000000045C0000053C0000051C000004FC00000B8
:100010004DC000004BC0000049C0000047C00000B8
:1000200045C0000043C0000041C000003FC00000C8
:100030003DC000003BC0000039C0000037C00000D8
:1000400035C0000033C0000031C000002FC00000E8
:100050002DC000002BC0000029C0000027C00000F8
:1000600025C0000023C0000021C000001FC0000008
:100070001DC000001BC0000019C0000017C0000018
:1000800015C0000013C0000011C0000011241FBEE5
:10009000CFEFD0E1DEBFCDBF21E0A0E0B1E001C0F5
:1000A0001D92A030B207E1F795D098C0A9CF8FEF8D
:1000B00087BB87B3877F87BB88B3816088BB82E5B6
:1000C0008DB908958FB9779BFECF089598B321E03D
:1000D00030E002C0220F331F8A95E2F720952923D2
:1000E00028BB089598B321E030E002C0220F331FEF
:1000F0008A95E2F7292B28BB0895CF93DF93D82F59
:10010000C62F80E0E3DF8D2FDDDF8C2FDBDF80E08B
:10011000E9DFDF91CF9108956FEF89E0EEDF6FE0C7
:100120008AE0EBDF6FE08BE0E8DF61E08CE0E5CFB9
:10013000089581B3826081BB81B38E7F81BB0895B6
:1001400082B3826082BB8AE18A95F1F700C082B3F4
:100150008D7F82BB089540E157E260E070E008C007
:10016000415051096109710922E02A95F1F700C057
:1001700080990EC0411551056105710589F780E030
:1001800090E008C0019622E02A95F1F700C002C075
:1001900080E090E0809B05C0411551056105710527
:1001A00089F7089581E085BB8FE082B98EB58360C1
:1001B0008EBD8CB59DB58032944F10F01DBC1CBC1B
:1001C000BFDFC9DF8434924010F413B8F2CF8FEF51
:1001D00083B9EFCF6CDFA0DFACDFE4DFF894FFCFB3
:00000001FF
