:1000000045C000004BC0000049C0000047C00000D0
:1000100045C0000043C0000041C000003FC00000D8
:100020003DC000003BC0000039C0000037C00000E8
:1000300035C0000033C0000031C000002FC00000F8
:100040002DC000002BC0000029C0000027C0000008
:1000500025C0000023C0000021C000001FC0000018
:100060001DC000001BC0000019C0000017C0000028
:1000700015C0000013C0000011C000000FC0000038
:100080000DC000000BC0000009C0000011241FBEFD
:10009000CFEFD0E1DEBFCDBF44D063C0B1CF8FEF93
:1000A00087BB87B3877F87BB88B3816088BB82E5C6
:1000B0008DB908958FB9779BFECF089598B321E04D
:1000C00030E002C0220F331F8A95E2F720952923E2
:1000D00028BB089598B321E030E002C0220F331FFF
:1000E0008A95E2F7292B28BB0895CF93DF93D82F69
:1000F000C62F80E0E3DF8D2FDDDF8C2FDBDF80E09C
:10010000E9DFDF91CF9108956FEF89E0EEDF6FE0D7
:100110008AE0EBDF6FE08BE0E8DF61E08CE0E5CFC9
:10012000089581E087BBBBDFEFDF8AB381608ABBC4
:100130008BB381608BBB2FEF89E698E12150804023
:100140009040E1F700C000008BB38E7F8BBB2FEF98
:1001500089E698E1215080409040E1F700C000001E
:06016000E7CFF894FFCF89
:00000001FF
