:1000000045C000004BC0000049C0000047C00000D0
:1000100045C0000043C0000041C000003FC00000D8
:100020003DC000003BC0000039C0000037C00000E8
:1000300035C0000033C0000031C000002FC00000F8
:100040002DC000002BC0000029C0000027C0000008
:1000500025C0000023C0000021C000001FC0000018
:100060001DC000001BC0000019C0000017C0000028
:1000700015C0000013C0000011C000000FC0000038
:100080000DC000000BC0000009C0000011241FBEFD
:10009000CFEFD0E1DEBFCDBF43D175C2B1CF8FEF7F
:1000A00087BB87B3877F87BB88B3816088BB82E5C6
:1000B0008DB908958FB9779BFECF089598B321E04D
:1000C00030E002C0220F331F8A95E2F720952923E2
:1000D00028BB089598B321E030E002C0220F331FFF
:1000E0008A95E2F7292B28BB0895CF93DF93D82F69
:1000F000C62F80E0E3DF8D2FDDDF8C2FDBDF80E09C
:10010000E9DFDF91CF9108956FEF89E0EEDF6FE0D7
:100110008AE0EBDF6FE08BE0E8DF61E08CE0E5CFC9
:100120000895FF920F931F93CF93DF939C018A3022
:10013000910540F4F82ECFEFDFEF0FEF1FEF6FEFD9
:100140007FEF9BC00A978A35910560F4C9016AE088
:1001500070E0F2D1F62EC82FD92F0FEF1FEF6FEFFF
:100160007FEF8BC0C9018456910984389340A8F46D
:10017000C90164E670E0E0D1F62EEAE0F0E0C901E2
:10018000BF01DAD1382F292FCB01BF01D5D1EC0126
:10019000032F122F6FEF7FEF70C0C901885E93406D
:1001A00088329342D8F4C90168EE73E0C5D1F62EC7
:1001B000C90164E670E0C0D1CB01EAE0F0E0BF0124
:1001C000BBD1EC01C901BF01B7D1382F292FCB0119
:1001D000BF01B2D18C01632F722F4FC0C9010996A4
:1001E000099768F4CC27DD27C21BD30B0F2EFFE045
:1001F000FF2EF02D0FEF1FEF6FEF7FEF3EC0C90115
:100200008D599F4F8A35910580F488279927821B45
:10021000930B6AE070E090D1EB018C010F2EFFE0B0
:10022000FF2EF02D6FEF7FEF28C0C90189519C4F41
:1002300084389340D0F4319521953109C90164E6A1
:1002400070E07AD1EB01EAE0F0E0C901BF0174D1BE
:10025000382F292FCB01BF016FD18C01632F722F53
:100260000F2EFFE0FF2EF02D08C0FF24FA94CFEFF1
:10027000DFEF0FEF1FEF6FEF7FEF6F3F8FEF78072D
:1002800049F081E032DF8FE19EE40197F1F700C091
:10029000000009C06FE081E028DF8FE19EE4019754
:1002A000F1F700C000000F3F9FEF190751F0602FDA
:1002B00082E01BDF8FE19EE40197F1F700C00000B0
:1002C00009C06FE082E011DF8FE19EE40197F1F752
:1002D00000C00000CF3F9FEFD90751F06C2F83E0A3
:1002E00004DF8FE19EE40197F1F700C0000009C030
:1002F0006FE083E0FADE8FE19EE40197F1F700C042
:1003000000006F2D84E0F1DE8FE19EE40197F1F7AC
:1003100000C00000DF91CF911F910F91FF900895D1
:1003200081E087BBBCDEF0DE87B3816087BB8EB522
:1003300083608EBDC12CD12C76018CB59DB58032E9
:10034000944FD8F398B381E0892788BB1DBC1CBCAF
:1003500020E030E040E05FE3C701B60107D06B0169
:100360007C0168D0CB01DDDEE8CF5058BB27AA273F
:100370000ED0A8C099D030F09ED020F031F49F3F2D
:1003800011F41EF48EC00EF4E095E7FB84C0E92F53
:10039000AAD080F3BA17620773078407950718F08D
:1003A00071F49EF5C2C00EF4E0950B2EBA2FA02D6D
:1003B0000B01B90190010C01CA01A0011124FF2712
:1003C000591B99F0593F50F4503E68F11A16F0400D
:1003D000A22F232F342F4427585FF3CF469537950C
:1003E0002795A795F0405395C9F77EF41F16BA0BD1
:1003F000620B730B840BBAF09150A1F0FF0FBB1F7F
:10040000661F771F881FC2F70EC0BA0F621F731FC7
:10041000841F48F4879577956795B795F7959E3F24
:1004200008F0B3CF9395880F08F09927EE0F9795B2
:100430008795089504D06894B11178C008955BD071
:1004400088F09F5790F0B92F9927B751A0F0D1F0BD
:10045000660F771F881F991F1AF0BA95C9F712C047
:10046000B13081F062D0B1E008955FC0672F782F7E
:100470008827B85F39F0B93FCCF3869577956795B3
:10048000B395D9F73EF490958095709561957F4F1F
:100490008F4F9F4F089597F99F6780E870E060E065
:1004A00008959FEF80EC089500240A94161617060D
:1004B00018060906089500240A9412161306140655
:1004C00005060895092E0394000C11F4882352F0B8
:1004D000BB0F40F4BF2B11F460FF04C06F5F7F4F70
:1004E0008F4F9F4F089557FD9058440F551F59F057
:1004F0005F3F71F04795880F97FB991F61F09F3F11
:1005000079F087950895121613061406551FF2CF39
:100510004695F1DF08C0161617061806991FF1CF89
:1005200086957105610508940895E894BB276627B0
:100530007727CB0197F9089597FB072E16F40094BF
:1005400006D077FD08D00BD007FC05D03EF490957F
:1005500081959F4F0895709561957F4F0895AA1BCF
:10056000BB1B51E107C0AA1FBB1FA617B70710F09E
:10057000A61BB70B881F991F5A95A9F780959095D0
:0A058000BC01CD010895F894FFCFEF
:00000001FF
