:1000000045C000004BC0000049C0000047C00000D0
:1000100045C0000043C0000041C000003FC00000D8
:100020003DC000003BC0000039C0000037C00000E8
:1000300035C0000033C0000031C000002FC00000F8
:100040002DC000002BC0000029C0000027C0000008
:1000500025C0000023C0000021C000001FC0000018
:100060001DC000001BC0000019C0000017C0000028
:1000700015C0000013C0000011C000000FC0000038
:100080000DC000000BC0000009C0000011241FBEFD
:10009000CFEFD0E1DEBFCDBF21D154C1B1CF20E041
:1000A00030E008C0EFECF7E03197F1F700C0000056
:1000B0002F5F3F4F28173907ACF308958FEF87BBA9
:1000C00087B3877F87BB88B3816088BB82E58DB9A2
:1000D00008958FB9779BFECF089598B321E030E063
:1000E00002C0220F331F8A95E2F72095292328BBEF
:1000F000089598B321E030E002C0220F331F8A95A3
:10010000E2F7292B28BB0895CF93DF93D82FC62F72
:1001100080E0E3DF8D2FDDDF8C2FDBDF80E0E9DFA8
:10012000DF91CF9108956FEF89E0EEDF6FE08AE015
:10013000EBDF6FE08BE0E8DF61E08CE0E5CF089576
:10014000EF92FF920F931F93CF93DF93EC018A30CE
:10015000910508F450C09C012A5031092A35310517
:1001600050F46AE070E0C7D0EB017C010FEF1FEFA5
:100170006FEF7FEF51C09C01245631092438334082
:10018000B8F464E670E0B7D0E62F472F2AE030E0FD
:10019000CE01B901B0D0C82FF92FCB01B901ABD036
:1001A0007C010C2F1F2FCE2FD42F6FEF7FEF34C089
:1001B000885E93408832934230F5CE0168EE73E05A
:1001C0009AD0E62F472FCE0164E670E094D0CB01A1
:1001D0002AE030E0B9018FD07C01CE01B9018BD08B
:1001E000C82FF92FCB01B90186D08C016C2F7F2F3E
:1001F000CE2FD42F11C0EE24EA94FE2C0FEF1FEF68
:100200006FEF7FEF09C0CFEFDFEFEE24EA94FE2C13
:100210000FEF1FEF6FEF7FEF6F3F4FEF740749F066
:1002200081E072DF8FE19EE40197F1F700C00000EA
:1002300009C06FE081E068DF8FE19EE40197F1F78C
:1002400000C000000F3F9FEF190751F0602F82E0C0
:100250005BDF8FE19EE40197F1F700C0000009C069
:100260006FE082E051DF8FE19EE40197F1F700C07B
:1002700000009FEFE916F90651F06E2D83E044DF90
:100280008FE19EE40197F1F700C0000009C06FE024
:1002900083E03ADF8FE19EE40197F1F700C00000B0
:1002A000CF3F9FEFD90751F06C2F84E02DDF8FE116
:1002B0009EE40197F1F700C0000009C06FE084E000
:1002C00023DF8FE19EE40197F1F700C00000DF918A
:1002D000CF911F910F91FF90EF90089581E087BB20
:1002E000EDDE21DF8DE090E02BDF88EE93E0D7DEBE
:1002F00081E090E0089597FB072E16F4009406D055
:1003000077FD08D00BD007FC05D03EF49095819581
:100310009F4F0895709561957F4F0895AA1BBB1B51
:1003200051E107C0AA1FBB1FA617B70710F0A61BF5
:10033000B70B881F991F5A95A9F780959095BC0116
:08034000CD010895F894FFCFF0
:00000001FF
