:1000000045C0000058C0000056C0000054C00000A9
:1000100052C0000050C000004EC000004CC00000A4
:100020004AC0000048C0000046C0000044C00000B4
:1000300042C0000040C000003EC000003CC00000C4
:100040003AC0000038C0000036C0000034C00000D4
:1000500032C0000030C000002EC000002CC00000E4
:100060002AC0000028C0000026C0000024C00000F4
:1000700022C0000020C000001EC000001CC0000004
:100080001AC0000018C0000016C0000011241FBED6
:10009000CFEFD0E1DEBFCDBF11E0A0E0B1E0ECE3F7
:1000A000F2E000E00BBF02C007900D92A232B10750
:1000B000D9F76BD0C1C0A4CF85B3886085BB8FEC66
:1000C00097E00197F1F700C0000085B3877F85BBFB
:1000D0008FEC97E00197F1F700C000000895CF93EF
:1000E0008FEF84BB15BAC0E2C5BBE6DFC5BBE4DF5A
:1000F00080E885BBE1DF15BADFDF80EF85BBDCDFA1
:1001000015BADADF80E685BBD7DFCF9108950F936C
:100110001F93CF938C010EC0C5BB85B3846085BB94
:10012000CBDFC295C07FC5BB85B3846085BBC4DF10
:100130000F5F1F4FF801C081C111EECFCF911F910A
:100140000F910895CF93C82F85BB85B38B7F85BB57
:10015000B3DFC295C07FC5BB85B38B7F85BBACDFEA
:10016000CF91089581E0EEDF8FE99FE00197F1F7ED
:1001700000C0000008958FEF84BB81BBB0DFAFDF0C
:10018000F1CF08958068DECF0895F5DF82E090E03A
:10019000F9DF80E091E0BBDF8FEF81BB81E083B9C5
:1001A00080936200C0E0D0E002C0C0E1D0E08FE107
:1001B0009EE40197F1F700C0000081B1813071F435
:1001C00021969FEF23EC89E0915020408040E1F799
:1001D00000C00000D0DF87E091E099DF81B181307D
:1001E00091F480B3813079F49FEF23EC89E0915052
:1001F00020408040E1F700C00000BDDF80E191E0D9
:1002000086DFC0E0D0E080B3813089F4C630D1050C
:1002100074F021979FEF23EC89E0915020408040BB
:10022000E1F700C00000A7DF89E191E070DFC03195
:0C023000D1050CF0BACFBBCFF894FFCF83
:10023C004E4947474552004E696B6B656C20310047
:10024C004E696B6B656C2033004E696B6B656C2073
:02025C0032006E
:00000001FF
